:020000040800F2
:10000000A80600209D010008091900085B180008D7
:1000100005190008C90200087D250008000000003D
:10002000000000000000000000000000D91C0008D3
:10003000CD0200080000000045190008DB1C000884
:10004000B7010008B7010008B7010008B7010008B0
:10005000B7010008B7010008B7010008B7010008A0
:10006000B7010008B7010008B7010008B701000890
:10007000B7010008B7010008B7010008B701000880
:10008000B7010008B7010008B7010008B701000870
:10009000B7010008B7010008B7010008B701000860
:1000A000B7010008B7010008B7010008B701000850
:1000B000B7010008B7010008B7010008B701000840
:1000C000B7010008B7010008B7010008B701000830
:1000D000B7010008B701000821250008B701000892
:1000E000B7010008B7010008B7010008B701000810
:1000F000B7010008B7010008B7010008B701000800
:10010000B7010008B7010008B7010008B7010008EF
:10011000B7010008B7010008B7010008B7010008DF
:10012000B7010008B7010008B7010008B7010008CF
:10013000B7010008B7010008B7010008B7010008BF
:10014000B7010008B7010008B7010008B7010008AF
:10015000B7010008B7010008B7010008B70100089F
:10016000B7010008B7010008B7010008B70100088F
:10017000B7010008B7010008B7010008000000003F
:10018000B7010008B7010008DFF80CD000F08AF8CA
:1001900000480047A5250008A8060020064880471B
:1001A00006480047FEE7FEE7FEE7FEE7FEE7FEE75C
:1001B000FEE7FEE7FEE7FEE7911D00088901000863
:1001C0002DE9F05F0546002092469B46884606468C
:1001D000814640241BE0284641464746224600F01F
:1001E00051F853465A46C01A914110D31146184649
:1001F000224600F038F82D1A67EB01084F462246D8
:100200000120002100F02FF817EB00094E41201EBD
:10021000A4F10104DFDC484631462A46434600F09B
:1002200000B830BCBDE8C09FD2B201E000F8012B9D
:10023000491EFBD270470022F6E710B513460A4666
:1002400004461946FFF7F0FF204610BD30B50446BE
:100250000020034600E05B1C934203D2E05CCD5CCF
:10026000401BF8D030BD202A04DB203A00FA02F10E
:10027000002070479140C2F1200320FA03F3194394
:1002800090407047202A04DB203A21FA02F0002136
:10029000704721FA02F3D040C2F120029140084396
:1002A00019467047064C074D06E0E06840F0010330
:1002B00094E8070098471034AC42F6D3FFF768FF84
:1002C0009C270008BC27000800BFFEE7704700001D
:1002D00078B50346002200240020E5E00126964080
:1002E0000D6805EA0604002C7DD04D68022D02D071
:1002F0004D68122D13D1D60803F1200555F82600BC
:100300005507EE0E0F25B540A8435607F60E0D69AA
:10031000B5402843D60803F1200545F826001868A3
:1003200056000325B540A8430D7905F00305560096
:10033000B540284318604D68012D08D04D68022D46
:1003400005D04D68112D02D04D68122D13D198683B
:1003500056000325B540A8435600CD68B540284354
:100360009860586801259540A8430D79C5F300159C
:100370009540284358600D7905F00305032D09D1F8
:10038000D86A01259540A8430D79C5F3C00595406D
:100390002843D862D86856000325B540A8435600C4
:1003A0008D68B5402843D8604D6805F08055B5F19B
:1003B000805F78D100BF3F4D2D6E45F001053D4E69
:1003C000356635462D6E05F00105009500BF00BF6E
:1003D0004FEAB635960855F8260095072E0F0F25DB
:1003E000B540A84300E05EE0B3F1904F01D1002595
:1003F0001EE0314DAB4201D1012519E02F4DAB423A
:1004000001D1022514E02E4DAB4201D103250FE0AE
:100410002C4DAB4201D104250AE02B4DAB4201D15A
:10042000052505E0294DAB4201D1062500E0072551
:100430009607360FB5402843254D960845F8260007
:10044000244D2868A0434D6805F48035B5F5803FFC
:1004500000D120431F4D28602D1D2868A0434D6802
:1004600005F40035B5F5003F00D12043194D2D1D91
:1004700028602D1D2868A0434D6805F48015B5F54A
:10048000801F00D12043134D083528602D1D28689A
:10049000A0434D6805F40015B5F5001F00D12043B9
:1004A0000C4D0C352860521C0D68D540002D7FF492
:1004B00015AF78BD00100240000400480008004855
:1004C000000C0048001000480014004800180048C4
:1004D0000800014000040140024613690B400BB1C3
:1004E000012000E0002070470AB1816100E08162D4
:1004F00070470000014800687047000008000020B5
:1005000002480068401C014908607047080000204C
:1005100010B5032000F0B2F8002000F005F800F05C
:1005200017F8002010BD000070B5044607480068A9
:100530004FF47A71B0FBF1F5284601F02CF8002257
:100540002146501E00F059F8002070BD0400002024
:1005500008B500BF2148006E40F001001F49086641
:100560000846006E00F00100009000BF00BF00BF11
:100570000846806D40F0805088650846806D00F028
:100580008050009000BF00BF032000F077F80022E9
:1005900011466FF00B0000F030F8002211466FF0AA
:1005A0000A0000F02AF8002211466FF0090000F05E
:1005B00024F800221146501F00F01FF800221146B7
:1005C000101F00F01AF800221146901E00F015F8D6
:1005D00000221146501E00F010F808BD0010024025
:1005E00000BF00F01F02012191404209920002F178
:1005F000E022C2F8001100BF70472DE9F05F80468D
:100600000D461646002701F081F9074639462A466D
:10061000334601F00700C0F1070ABAF1040F02D90E
:100620004FF0040A01E0C0F1070AD14600F1040AC4
:10063000BAF1070F02D24FF0000A01E0A0F1030A5D
:10064000D4464FF0010A0AFA09FAAAF1010A0AEAA5
:10065000020A0AFA0CFA4FF0010B0BFA0CFBABF191
:10066000010B0BEA030B4AEA0B042146404601F05A
:1006700055F900F000B830BCBDE8C09F00BF00F0E5
:100680000702064B19684FF6FF031940044B0B4352
:1006900043EA0221014B196000BF70470CED00E0F6
:1006A0000000FA0502460021B2F5007F29D11D485D
:1006B000006800F4C060B0F5007F31D019480068D0
:1006C00020F4C06040F40070164B186016480068B3
:1006D000164BB0FBF3F0322300FB03F100E0491EA0
:1006E00031B11048406900F48060B0F5806FF6D0F9
:1006F0000C48406900F48060B0F5806F10D1032091
:1007000070470848006800F4C060B0F5806F07D0FB
:100710000448006820F4C06040F48060014B186019
:100720000020EDE7007000400400002040420F0070
:100730000248006800F4C06070470000007000408C
:100740002DE9F8430446002600270025A846208806
:1007500000F40060B0F5006F30D1606E80B1B0F58C
:10076000800F13D0B0F5000F03D0B0F5400F15D1B6
:1007700013E0FA48C06840F48030F849C8600FE0E0
:100780000021201D01F0E0F8054609E0002104F1F8
:10079000200001F09FF9054602E001E0012500BFBD
:1007A00000BF55B9ED488830006820F44000616E04
:1007B0000843EA49C1F8880000E0A846208800F410
:1007C0008050B0F5805F30D1A06E80B1B0F1807FF5
:1007D00013D0B0F1007F03D0B0F1407F15D113E00A
:1007E000DE48C06840F48030DC49C8600FE000217A
:1007F000201D01F0A9F8054609E0002104F12000C0
:1008000001F068F9054602E001E0012500BF00BFE4
:1008100055B9D2488830006820F04070A16E084376
:10082000CE49C1F8880000E0A846206800F40030F6
:10083000B0F5003F76D14FF00009C848806D00F058
:10084000805078B900BFC548806D40F08050C349E2
:1008500088650846806D00F08050009000BF00BFA2
:100860004FF00109BE48006840F48070BC49086040
:10087000FFF740FE074606E0FFF73CFEC01B0228DC
:1008800001D9032505E0B648006800F4807000280F
:10089000F2D000BF85BBB1489030006800F44076CC
:1008A000D6B1D4F88400B04216D0AC48903000687D
:1008B00020F44076A948D0F8900040F48030A74951
:1008C000C1F890000846D0F8900020F48030C1F8BC
:1008D00090000846C0F8906006F00100A8B1FFF74C
:1008E00009FE074609E0FFF705FEC01B41F288310B
:1008F000884202D9032507E017E098489030006845
:1009000000F002000028EED000BF65B99348903097
:10091000006820F44070D4F8841008438F49C1F86F
:10092000900003E00CE0A84600E0A846B9F1010FF2
:1009300005D18A48806D20F080508849886500BFC5
:10094000207800F0010048B184488830006820F029
:100950000300A16B08438149C1F88800207800F0AA
:100960000200022809D17D488830006820F00C0080
:10097000E16B08437949C1F88800207800F0040051
:10098000042809D175488830006820F03000216CB7
:1009900008437249C1F88800207800F00800082850
:1009A00009D16E488830006820F0C000616C0843AF
:1009B0006A49C1F88800207800F01000102809D199
:1009C00066488830006820F44070A16C0843634991
:1009D000C1F88800207800F02000202809D15F4865
:1009E0008830006820F44060E16C08435B49C1F83E
:1009F0008800208800F40070B0F5007F09D15748C6
:100A00008830006820F44020E16D08435349C1F864
:100A10008800208800F48060B0F5806F09D14F48CD
:100A20008830006820F44010216E08434B49C1F81B
:100A30008800207800F04000402809D147488830DD
:100A4000006820F44050216D08434449C1F88800F3
:100A5000207800F08000802809D140488830006864
:100A600020F44040616D08433C49C1F8880020886B
:100A700000F48070B0F5807F09D138488830006874
:100A800020F44030A16D08433449C1F88800208823
:100A900000F40050B0F5005F1FD130488830006886
:100AA00020F04060E16E08432C4988310860E06E18
:100AB000B0F1006F06D12948C06840F48010274982
:100AC000C8600AE0E06EB0F1806F06D10121201D00
:100AD00000F03AFF054605B1A846206800F4002062
:100AE000B0F5002F1FD11D488830006820F040600D
:100AF000216F0843194988310860206FB0F1006FF9
:100B000006D11648C06840F480101449C8600AE055
:100B1000206FB0F1806F06D10121201D00F014FF7D
:100B2000054605B1A846206800F48020B0F5802F66
:100B300023D10A488830006820F04060616F084384
:100B4000064988310860606FB0F1006F0AD1034830
:100B5000C06840F480100149C8600EE000100240F7
:100B600000700040606FB0F1806F06D10121201D40
:100B700000F0EAFE054605B1A846208800F4804052
:100B8000B0F5804F1FD12248006820F04050A16F7F
:100B900008431F490860A06FB0F1805F07D10221B0
:100BA000201D00F0D1FE05466DB1A8460BE0A06FF8
:100BB000B0F1005F07D1022104F1200000F08AFFAC
:100BC000054605B1A846208800F40040B0F5004F66
:100BD00009D10F48006820F08040E16F08430C49BC
:100BE0008839C1F88800206800F48030B0F5803F73
:100BF0000AD10748006820F00040D4F8801008436C
:100C000003498839C1F888004046BDE8F8830000F0
:100C10008810024070B504460D46002670480068F2
:100C200000F00700A8420ED26D48006820F00700CF
:100C300028436B4908600846006800F00700A84296
:100C400001D0012070BD207800F00100002879D08B
:100C50006068032806D16348006800F00070D8B9C6
:100C60000120EFE76068022806D15E48006800F4C2
:100C7000003088B90120E5E7606830B9594800685C
:100C800000F0020040B90120DCE75648006800F49B
:100C9000806008B90120D5E75248806820F0030041
:100CA000616808434F498860FFF724FC0646606886
:100CB000032810D108E0FFF71DFC801B41F28831AA
:100CC000884201D90320BDE74648806800F00C0047
:100CD0000C28F0D136E06068022810D108E0FFF758
:100CE00009FC801B41F28831884201D90320A9E721
:100CF0003C48806800F00C000828F0D122E06068D1
:100D000080B908E0FFF7F6FB801B41F2883188428A
:100D100001D9032096E73348806800F00C000028D2
:100D2000F0D10FE008E0FFF7E5FB801B41F28831CE
:100D3000884201D9032085E72A48806800F00C002A
:100D40000428F0D1207800F00200022807D12548BD
:100D5000806820F0F000A16808432249886020489C
:100D6000006800F00700A8420ED91D48006820F076
:100D7000070028431A4908600846006800F0070089
:100D8000A84201D001205DE7207800F0040004288B
:100D900007D11448806820F4E060E16808431149F5
:100DA0008860207800F00800082808D10D48806885
:100DB00020F46050216940EAC1000A49886000F0CF
:100DC0003DF808498968C1F30311074A515CC840DE
:100DD000064908600020FFF7A7FB002032E700006B
:100DE00000200240001002405427000804000020A8
:100DF00001480068704700000400002000B5FFF7BC
:100E0000F7FF04498968C1F30221034A515CC840D5
:100E100000BD0000001002406427000800B5FFF785
:100E2000E7FF04498968C1F3C221034A515CC84005
:100E300000BD00000010024064270008F0B500214A
:100E4000002300240225022200203B4EB66806F053
:100E50000C065EB1384EB66806F00C060C2E1ED19C
:100E6000354EF66806F00306012E18D1324E36686C
:100E700006F008062EB9304E94363668C6F30321C4
:100E800003E02D4E3668C6F303112C4E56F82110A0
:100E9000294EB66806F00C0686B908460EE0264EC6
:100EA000B66806F00C06042E01D1254806E0224E55
:100EB000B66806F00C06082E00D122481E4EB66811
:100EC00006F00C060C2E36D11B4EF66806F0030415
:100ED000194EF668C6F30216721C012C19D0022CAA
:100EE00002D0032C14D109E0154EB6FBF2F6124FD6
:100EF000FF68C7F3062706FB07F313E0114EB6FBA6
:100F0000F2F60D4FFF68C7F3062706FB07F309E06B
:100F100000BFB1FBF2F6084FFF68C7F3062706FBD8
:100F200007F300BF00BF044EF668C6F34166761CA7
:100F30007500B3FBF5F0F0BD001002406C2700080F
:100F40000024F40000127A00F8B504460025207849
:100F500000F0100010286ED1F848806800F00C00F6
:100F6000002869D1F548006800F0020018B1A069B6
:100F700008B90120F8BDF148216A006800F00800B6
:100F800020B1EE48006800F0F00005E0EB48943036
:100F9000006800F47060000981421FD9206A00F0E7
:100FA0004BFE08B10120E5E700BFE448006840F0CF
:100FB0000800E24908600846006820F0F000216A55
:100FC0000843DE49086000BF0846406820F47F40BF
:100FD000E16940EA0120D94948601EE000BFD748D6
:100FE000006840F00800D54908600846006820F015
:100FF000F000216A0843D149086000BF08464068F4
:1010000020F47F40E16940EA0120CC494860206A31
:1010100000F012FE08B10120ACE7FFF70FFFC7494F
:101020008968C1F30311C64A515CC840C5490860CC
:101030000020FFF779FA4AE0A06980B3BF48006852
:1010400040F00100BD490860FFF754FA054606E08C
:10105000FFF750FA401B022801D903208AE7B7485E
:10106000006800F002000028F2D000BFB34800681A
:1010700040F00800B14908600846006820F0F00020
:10108000216A0843AD49086000BF0846406820F463
:101090007F40E16940EA0120A849486017E0FFE786
:1010A000A648006820F00100A4490860FFF722FA72
:1010B000054606E0FFF71EFA401B022801D903206F
:1010C00058E79E48006800F002000028F2D120781E
:1010D00000F00100002868D09848806800F00C00FB
:1010E00008280BD09548806800F00C000C280ED121
:1010F0009248C06800F00300032808D18F480068B8
:1011000000F4003088B3606878BB012032E700BF8C
:101110006068B0F5803F06D18848006840F48030B0
:10112000864908601AE06068B0F5A02F0BD18348AB
:10113000006840F48020814908600846006840F457
:10114000803008600AE07D48006820F480307B49E8
:1011500008600846006820F48020086000BF6068CE
:1011600090B1FFF7C7F9054607E01EE0FFF7C2F9A7
:10117000401B642801D90320FCE67048006800F495
:1011800000300028F2D010E0FFF7B4F9054606E081
:10119000FFF7B0F9401B642801D90320EAE667484D
:1011A000006800F400300028F2D1207800F002003E
:1011B00002285ED16148806800F00C0004280BD042
:1011C0005E48806800F00C000C2818D15B48C068AD
:1011D00000F00300022812D15848006800F4806033
:1011E00018B1E06808B90120C4E65448406820F00E
:1011F000F850217C40EA01605049486039E0E068DD
:1012000000B34E48006840F480704C490860FFF716
:1012100071F9054606E0FFF76DF9401B022801D978
:101220000320A7E64548006800F480600028F2D05B
:101230004248406820F0F850217C40EA01603F4974
:10124000486016E03D48006820F480703B49086023
:10125000FFF750F9054606E0FFF74CF9401B02285E
:1012600001D9032086E63548006800F48060002834
:10127000F2D1207800F00800082836D16069D0B19A
:101280002E489430006840F001002C49C1F89400C9
:10129000FFF730F9054606E0FFF72CF9401B02285E
:1012A00001D9032066E625489430006800F002006A
:1012B0000028F1D019E021489430006820F00100A6
:1012C0001E49C1F89400FFF715F9054606E0FFF73F
:1012D00011F9401B022801D903204BE6174894302E
:1012E000006800F002000028F1D1207800F004002E
:1012F00004286ED100261148806D00F0805070B92E
:1013000000BF0E48806D40F080500C49886508464B
:10131000806D00F08050009000BF00BF01260A4899
:10132000006800F48070F0B90748006840F48070ED
:1013300005490860FFF7DEF805460EE000100240A0
:10134000542700080400002000700040FFF7D2F886
:10135000401B022801D903200CE68148006800F4F4
:1013600080700028F2D000BFA068012808D17D4815
:10137000006840F001007B499039C1F8900021E0FD
:10138000A06805280FD17748006840F0040075492F
:101390009039C1F890000846D0F8900040F0010064
:1013A000C1F890000EE06F48006820F001006D4920
:1013B0009039C1F890000846D0F8900020F0040061
:1013C000C1F8900000BFA068A0B1FFF793F80546F0
:1013D00009E02DE0FFF78EF8401B41F2883188428A
:1013E00001D90320C6E55F48006800F0020000282C
:1013F000F0D012E0FFF77EF8054608E0FFF77AF834
:10140000401B41F28831884201D90320B2E555489A
:10141000006800F002000028F0D1012E07D15148E9
:101420009038806D20F080504E499039886500BF1B
:10143000A06AE8B34B489038806800F00C000C2894
:1014400079D0A06A022853D146489038006820F02D
:101450008070444990390860FFF74CF8054606E073
:10146000FFF748F8401B022801D9032082E53D48D8
:101470009038006800F000700028F1D1206B401E09
:101480000101606B41EA0021A06B000941EA404084
:10149000E16A0843A18F0122C2EB510140EA4151A8
:1014A0004020005DC2EB500041EA40602D4900E061
:1014B00053E09039C8600846006840F080700860CA
:1014C0000846C06840F08070C860FFF713F8054612
:1014D00006E0FFF70FF8401B022801D9032049E579
:1014E00020489038006800F000700028F1D034E007
:1014F0001C489038006820F080701A4990390860C4
:101500000846006800F0006048B90846006800F02E
:10151000005020B90846C06820F00300C860114898
:101520009038C068104908400E499039C860FEF7ED
:10153000E1FF054607E00EE0FEF7DCFF401B022856
:1015400001D9032016E507489038006800F00070C4
:101550000028F1D101E001200CE500200AE500009F
:101560000070004090100240FFFFEEFE042808D1FA
:101570004FF0E021096941F004014FF0E0221161D0
:1015800007E04FF0E021096921F004014FF0E0226B
:1015900011617047704770B504462546681EB0F16A
:1015A000807F01D301200FE0681E4FF0E0214861E9
:1015B0000F214FF0FF3000F0B1F900204FF0E02193
:1015C000886107200861002070BD10B5FFF7E2FFB9
:1015D00010BD10B504460CB9012010BDA06900B1C2
:1015E00000E000BF94F8710028B9002084F8700072
:1015F000204600F02BF8242084F871002068006851
:1016000020F0010021680860204600F009FD012853
:1016100000D1E2E7606A10B1204600F0E1FB2068EB
:10162000406820F49040216848602068806820F07D
:101630002A00216888602068006840F00100216865
:101640000860204600F048FCC7E7000010B586B0EF
:10165000044615492068884224D100BF1348806D94
:1016600040F40030114988650846806D00F4003070
:10167000009000BF00BF0C200190022002900020CB
:101680000390032004900720059001A94FF090409B
:10169000FEF71EFE002211462620FEF7AEFF262092
:1016A000FEF79EFF06B010BD00440040001002404F
:1016B00010B5034693F87200202862D101B10AB92F
:1016C000012010BD00BF93F87000012801D1022055
:1016D000F7E7012083F8700000BF5965A3F8582090
:1016E000A3F85A200020186600BF9868B0F5805F04
:1016F0000AD1186920B940F2FF10A3F85C001CE081
:10170000FF20A3F85C0018E0986848B9186918B978
:10171000FF20A3F85C0010E07F20A3F85C000CE041
:101720009868B0F1805F08D1186918B97F20A3F8D4
:101730005C0002E03F20A3F85C0000BF0020586777
:10174000222083F872001868806840F001001C684D
:10175000A0609868B0F5805F04D1186910B90A4894
:10176000186601E00948186600BF002083F8700081
:1017700000BF1868006840F490701C68206000206A
:101780009FE702209DE700004D1F0008B91F0008D9
:1017900070472DE9F84304460D4616461F464FF0A4
:1017A000000994F87100202855D105B116B901201F
:1017B000BDE8F88300BF94F87000012801D1022031
:1017C000F6E7012084F8700000BF00206067212048
:1017D00084F87100FEF78EFE8146A4F85060A4F8EC
:1017E000526021E04B46002280212046009700F005
:1017F00060FE08B10320DBE7A068B0F5805F0AD186
:10180000206940B9A846B8F80000C0F30800216874
:101810000885AD1C03E015F8010B21680885B4F8B4
:101820005200401EA4F85200B4F852000028D9D14A
:101830004B46002240212046009700F03AFE08B1B6
:101840000320B5E7202084F8710000BF002084F851
:10185000700000BFACE70220AAE700BFFEE700006F
:1018600000B587B000BF1148C06C40F001000F49BF
:10187000C8640846C06C00F00100019000BF00BFC2
:10188000012220214FF09040FEF72EFE20200290F2
:1018900001200390002004900220059002A94FF03F
:1018A0009040FEF715FD07B000BD0000001002409B
:1018B00010B50E480E4908604FF4165048600021DC
:1018C0000B488160C16001610C214161002181618F
:1018D000C16101620020064948620846FFF779FEAF
:1018E00018B1CC2103A000F04BFE10BD0044004015
:1018F0000C0000202E2E2F5372632F6D61696E2E07
:101900006300000000BFFEE7704700000248006867
:10191000C0F30220704700000CED00E010B5002875
:1019200007DA0A07140E054A00F00F031B1FD454F0
:1019300003E00A07130E024A135410BD18ED00E02D
:1019400000E400E0704700002DE9F04104460E4637
:10195000002700255B48C06800F0030090B159489B
:10196000C06800F003002168884209D1206838B1BE
:101970005448C068C0F30210401C6168884233D0EC
:10198000012531E02068012804D0022809D003286D
:101990001AD10DE04B48006800F0020000B90125A3
:1019A00014E04848006800F4806000B901250DE0AB
:1019B0004448006800F4003028B94248006800F448
:1019C000802000B9012501E0012500BF00BF5DB9FD
:1019D000D4E90010401E41EA00103A49C96821F0DC
:1019E000730108433749C860002D68D13548006845
:1019F00020F0806033490860FEF77CFD074606E072
:101A0000FEF778FDC01B022801D9032505E02D480B
:101A1000006800F000600028F2D100BFCDBB6EB9B5
:101A2000A0680002E168090940EA414025490969C6
:101A3000254A114008432349086120E0012E0FD1B7
:101A4000A0680002218A0122C2EB510140EA415004
:101A50001C4909691D4A114008431A4908610EE0F2
:101A6000A0680002217D0122C2EB510140EA4160E1
:101A700014490969164A114008431249086111487E
:101A8000006840F080600F490860FEF733FD0746AC
:101A900007E014E0FEF72EFDC01B022801D9032544
:101AA00005E00848006800F000600028F2D000BFA0
:101AB0002DB904480069A169084302490861284614
:101AC000BDE8F08100100240FF80FDFFFF809FFF16
:101AD000FF80FFF92DE9F04104460E46002700255E
:101AE0005248C06800F0030090B15048C06800F050
:101AF00003002168884209D1206838B14B48C0688A
:101B0000C0F30210401C6168884233D0012531E0E7
:101B10002068012804D0022809D003281AD10DE03A
:101B20004248006800F0020000B9012514E03F4877
:101B3000006800F4806000B901250DE03B480068B2
:101B400000F4003028B93948006800F4802000B95A
:101B5000012501E0012500BF00BF5DB9D4E90010F7
:101B6000401E41EA00103149C96821F07301084361
:101B70002E49C860002D55D12C48006820F08050B7
:101B80002A490860FEF7B6FC074606E0FEF7B2FCFD
:101B9000C01B022801D9032505E02448006800F095
:101BA00000500028F2D100BFE5BB6EB9A06800026A
:101BB000E168090940EA41401C4949691C4A114051
:101BC00008431A4948610EE0A0680002217C012206
:101BD000C2EB510140EA416014494969154A11407C
:101BE0000843124948611148006840F080500F498D
:101BF0000860FEF77FFC074606E0FEF77BFCC01B93
:101C0000022801D9032505E00848006800F00050CB
:101C10000028F2D000BF2DB904484069616908432B
:101C2000024948612846BDE8F081000000100240EA
:101C3000FF80FDFFFF80FFF9F8B504460026002570
:101C40002348806D00F0805018B1FEF771FD064604
:101C500016E000BF1E48806D40F080501C4988652A
:101C60000846806D00F08050009000BF00BFFEF776
:101C70005FFD06461648806D20F080501449886547
:101C8000B6F5007F07D1802C10D9A02C01D90225F0
:101C90000CE001250AE0802C01D9032506E0802C08
:101CA00001D1022502E0702C00D10125094800680D
:101CB00020F007002843074908600846006800F044
:101CC0000700A84201D00120F8BD0020FCE7000079
:101CD0000010024000200240704710B5FEF710FCD3
:101CE000FFF773FC10BD000010B5B8B002202790BC
:101CF000C0012A9010202B900020319027A8FFF7D8
:101D000023F918B191211EA000F03AFC0F20229077
:101D1000012023900020249025902690002122A8C5
:101D2000FEF778FF18B19F2115A000F029FC0220D2
:101D3000009000200F906846FEF702FD18B1A62122
:101D40000FA000F01DFC4FF40070FEF7ABFC18B1C3
:101D5000AD210BA000F014FCFFF74AF84FF47A71A4
:101D6000B0FBF1F42046FFF716FC0420FFF7FEFB62
:101D700000221146501EFEF740FC38B010BD000096
:101D80002E2E2F5372632F6D61696E2E630000003B
:101D90001048006840F470000E4908600E48006862
:101DA00040F001000C490860002088600846006887
:101DB0000A490840084908608814C8600846006855
:101DC00020F48020086000208861C8030149803920
:101DD0000860704788ED00E000100240FFFFF6EA5F
:101DE00090F8241001F0010139B10168496821F42B
:101DF0000031826A11430268516090F8241001F0AA
:101E00000201022907D10168496821F48031C26AC0
:101E100011430268516090F8241001F00401042974
:101E200007D10168496821F48021026B11430268DF
:101E3000516090F8241001F00801082907D10168C9
:101E4000496821F40041426B11430268516090F8E7
:101E5000241001F01001102907D10168896821F4CC
:101E60008051826B11430268916090F8241001F058
:101E70002001202907D10168896821F40051C26B33
:101E800011430268916090F8241001F0400140294C
:101E900013D10168496821F48011026C1143026872
:101EA0005160016CB1F5801F07D10168496821F4C8
:101EB000C001426C11430268516090F8241001F097
:101EC0008001802907D10168496821F40021826CD2
:101ED000114302685160704738B504460025002060
:101EE0006067FEF707FB05462068006800F0080001
:101EF00008280CD16FF07E402B4600224FF40011D1
:101F00000090204600F0D5FA08B1032038BD2068C3
:101F1000006800F0040004280CD16FF07E402B46CE
:101F200000224FF480010090204600F0C2FA08B170
:101F30000320EBE7202084F8710084F8720000BFD2
:101F4000002084F8700000BF00BFDFE72DE9F041FA
:101F50000446B4F85C7094F87200222824D12068FA
:101F6000868C656D06EA07002880606D801C6065C0
:101F7000B4F85A00401E80B2A4F85A00D0B92068C4
:101F8000006820F49070216808602068806820F064
:101F9000010021688860202084F8720000202066FB
:101FA0002046FFF7F5FB05E02068008B40F00800B5
:101FB00021680883BDE8F08170B50446B4F85C6020
:101FC00094F87200222823D12068858CF0B2284032
:101FD000626D511C61651070B4F85A00401E80B2E9
:101FE000A4F85A00D0B92068006820F490702168E5
:101FF00008602068806820F0010021688860202047
:1020000084F87200002020662046FFF7C1FB05E03F
:102010002068008B40F008002168088370BD000034
:102020002DE9F84F04464FF0000910264FF0000B41
:102030000025002000908246F7492068884200D1A0
:1020400000E000BF2169A068084361690843E169B5
:1020500040EA010920680068F049084040EA0900A8
:10206000216808602068406820F44050E168084317
:1020700021684860D4F81890E7492068884202D067
:10208000206A40EA09092068806820F4306040EA4C
:1020900009002168886000BFE1492068884216D1A4
:1020A000E048006800F0030030B1012808D00228A1
:1020B00004D0032808D105E0012607E0022605E048
:1020C000042603E0082601E0102600BF8CE0D64974
:1020D0002068884216D1D348006800F00C0030B167
:1020E000042808D0082804D00C2808D105E00026D0
:1020F00007E0022605E0042603E0082601E010269A
:1021000000BF71E0C9492068884216D1C5480068FF
:1021100000F0300030B1102808D0202804D030283A
:1021200008D105E0002607E0022605E0042603E0CA
:10213000082601E0102600BF56E0BD49206888420D
:1021400016D1B848006800F0C00030B1402808D06F
:10215000802804D0C02808D105E0002607E0022628
:1021600005E0042603E0082601E0102600BF3BE05E
:10217000B0492068884219D1AA48006800F440702C
:1021800048B1B0F5807F0AD0B0F5007F05D0B0F53A
:10219000407F08D105E0002607E0022605E004267E
:1021A00003E0082601E0102600BF1DE09A492068E0
:1021B000884219D19B48006800F4406048B1B0F5EE
:1021C000806F0AD0B0F5006F05D0B0F5406F08D130
:1021D00005E0002607E0022605E0042603E00826C5
:1021E00001E0102600BF00BF00BF8B492068884275
:1021F00072D1042E10D003DC3EB1022E13D108E0C0
:10220000082E0DD0102E0ED10EE0FEF7F7FD8246FF
:102210000DE0DFF824A20AE0FEF710FE824606E099
:102220004FF4004A03E000BF0120009000BF00BF50
:10223000BAF1000F0AD0606800EB4000504503D8A7
:1022400060680003504502D20120009025E1042E71
:102250002ED003DC3EB1022E51D118E0082E3CD026
:10226000102E4CD14CE0FEF7C9FD4FF48071A0FB5D
:102270000131606840081F1841F10001D4F804C022
:10228000624600233846FDF79BFF05463BE0D4F845
:1022900004C04FEA5C000021684BC71841EB0108FD
:1022A00062460B4638464146FDF78AFF05462AE05E
:1022B000FEF7C4FD4FF48071A0FB0130616849084E
:1022C0005F1840F10001D4F804C06246002338468C
:1022D000FDF776FF054616E022E0D4F804C04FEA89
:1022E0005C0000214FF40003C71841EB010862466F
:1022F0000B4638464146FDF763FF054603E000BF45
:102300000120009000BF00BFB5F5407F05D3B5F5B3
:10231000801F02D22068C560BFE001200090BCE0B1
:10232000E069B0F5004F57D1042E28D005DC4EB13E
:10233000012E11D0022E36D118E0082E29D0102EF1
:1023400031D131E0FEF75AFD4000616800EB5100E9
:10235000B0FBF1F085B22AE0FEF760FD4000616855
:1023600000EB5100B0FBF1F085B220E03449606829
:1023700001EB50006168B0FBF1F085B217E0FEF7A9
:102380005DFD4000616800EB5100B0FBF1F085B2EB
:102390000DE04FF48031606801EB50006168B0FBE4
:1023A000F1F085B203E000BF0120009000BF00BF44
:1023B000102D0ED3B5F5803F0BD24FF6F07005EA25
:1023C000000BC5F342004BEA000B2068C0F80CB0CC
:1023D00063E00120009060E0042E3CD005DC4EB1AB
:1023E000012E10D0022E49D12CE0082E3CD0102E08
:1023F00044D144E0FEF702FD616800EB5100B0FB00
:10240000F1F085B23EE0FEF709FD616800EB510096
:10241000B0FBF1F085B235E000800040F369FFEFDA
:10242000003801408810024000440040004800404D
:10243000004C0040005000400024F400000024F450
:102440000048E8011849606801EB50006168B0FB82
:10245000F1F085B216E0FEF7F1FC616800EB510087
:10246000B0FBF1F085B20DE04FF40041606801EB84
:1024700050006168B0FBF1F085B203E000BF0120BD
:10248000009000BF00BF102D05D3B5F5803F02D2EC
:102490002068C56001E00120009000202066606691
:1024A000009800F003B800000024F40018BCBDE858
:1024B000E08F2DE9F04104460D4617469846069EEA
:1024C00021E0701CF8B12EB1FEF714F8A0EB080063
:1024D000B04218D92068006820F4D07021680860E4
:1024E0002068806820F0010021688860202084F83E
:1024F000710084F8720000BF002084F8700000BFF3
:102500000320BDE8F0812068C0692840A84201D1BD
:10251000012000E00020B842D3D00020F1E7000005
:1025200010B51449086800F0200010B3114A0832B1
:102530001288D1B2104AB2F80032B2F8022202F583
:10254000007292B293420DD00B4AB2F80032B2F848
:102550000022521C084CA4F80022C3F308022346B0
:10256000995405E00022044BA3F80022A3F80222AC
:1025700000BF10BD1C4400408400002000BFFEE7E7
:1025800000BFFEE702E008C8121F08C1002AFAD106
:1025900070477047002001E001C1121F002AFBD1E3
:1025A0007047000008B5FDF7B3FFFFF79DFBFFF78D
:1025B00057F9FFF77DF9012269465448FFF778F88B
:1025C0004FF47A73052252A15048FFF7E2F8012236
:1025D00020214FF09040FDF787FF96E04E48B0F87D
:1025E00002024D49B1F800128842F6D04B480078FB
:1025F00010B1012873D112E04748B0F80212B0F8C8
:102600000202401C444AA2F80202C1F3080011462B
:102610000C5C242C02D101204049087074E03E4833
:10262000B0F80212B0F80202401C3B4AA2F80202C3
:10263000C1F3080011460C5C3B2C09D038483949DD
:102640000978445437480078401C3649087059E0EE
:102650003448027834A13248FDF7F8FDD8B920217A
:102660004FF09040FDF738FF60B9012220214FF074
:102670009040FDF739FF4FF47A7306222BA12348CF
:10268000FFF787F8274801782548FDF7D4FD00209B
:102690002449087033E02348027826A12048FDF73A
:1026A000D5FDE8B920214FF09040FDF715FF012836
:1026B0000CD1002220214FF09040FDF715FF4FF480
:1026C0007A7307221CA11148FFF763F815480178B7
:1026D0001348FDF7B0FD0020124908700FE012E02A
:1026E000104801780E48FDF7A6FD00200D4908703E
:1026F0004FF47A73122212A10448FFF74AF800201F
:102700000649087000E000BF00BF67E70C0000202A
:1027100048656C6C6F000000840000200000002001
:1027200088020020010000204F4E00004F4E204C38
:10273000454400004F4646004F4646204C45440065
:10274000434F4D4D414E44204E4F54204445464941
:102750004E450000000000000000000001020304DC
:10276000060708090000000001020304A08601001A
:10277000400D0300801A060000350C0040420F0097
:1027800080841E0000093D0000127A000024F4003D
:1027900000366E010048E801006CDC02BC2700082E
:1027A000000000200C00000084250008C827000855
:1027B0000C0000209C06000094250008000000008A
:0827C00000093D0000000000CB
:040000050800018965
:00000001FF
